:080000000C9459000C9400005F
:100008000C9400000C9400000C9400000C94000068
:100018000C9400000C9400000C9400000C94000058
:100028000C9400000C9400000C9400000C94D80070
:100038000C9400000C9400000C9400000C94000038
:100048000C9400000C9400000C9493000C94000095
:100058000C94C3000C9400000C9400000C94000055
:100068000C9400000C9400000C9400000C94000008
:100078000C9400001027E80364000A000100001037
:100088000001100001000000000000000000000056
:1000980000000000000001002D4E414E00494E4670
:1000A8000000010010029E000000F894EE27EFBB4C
:1000B800F1E0F5BFE5BFF8E1A895A4B7A77FA4BF15
:1000C800F0936000E09360008DE0A2E0BB27ED9321
:1000D8008A95E9F780E094E0A0E0B1E0ED9301971C
:1000E800E9F7EAEAF0E085919591009761F0A5912A
:1000F800B59105901590BF01F00105900D920197FB
:10010800E1F7FB01F0CFE0E0EEBBEABDEBBDEFEFBE
:10011800EDBFE4E0EEBFC0E0D2E00C9485010AD266
:100128001A930A931091C0000091C600E12FEC7158
:1001380081F4E32D3394F0E0E050FE4F0083E8E0D3
:10014800E31509F433245394E8E0E51511F4552434
:10015800F09A0991199123C01A935520F1F3E22DD1
:100168002394F0E0E050FE4F1081E8E0E21509F436
:100178002224F8945A947894E12F19910895DAD1A9
:10018800662069F06A94E72D7394F0E0E85FFD4F0C
:10019800E081E093C600E8E0E71509F47724E991E7
:1001A800EFBFF991E99118955E9B02C05E9801C076
:1001B8005E9A18952E98409AC2D1C7D12D98089565
:1001C8002E98409A2898299AC0D12D9A08952C984B
:1001D8002D9AACEDB5E04AD22E98409A289A2998E3
:1001E8002A982B9A419A42980895B5D14298A0EA44
:1001F800BFE03CD20895AFD111C04198429A9FD137
:100208002A9A2B982C982D9A2E9813C02A982B9AB4
:1002180096D12C982D9A2E9A40984198429A0895F2
:100228002A982B9A2898299A2C982D9A4198429A7C
:100238002E9A409A0895DFD1E0E02899E1E095D11F
:1002480020E030E02430E0E03E075CF42898A4EF9A
:10025800B1E00CD2289AA4EFB1E008D22F5F3F4F4B
:10026800F1CF003011F4289801C0289A19C0C3D1E1
:10027800E0E02A99E1E079D12430E0E03E075CF43F
:100288002A98A4EFB1E0F2D12A9AA4EFB1E0EED116
:100298002F5F3F4FF1CF003011F42A9801C02A9AFE
:1002A800AFD124960895AA93E881E13319F4EFE0D9
:1002B800F0E025C0E23319F4EEE1F0E020C0E333CA
:1002C80019F4EDE2F0E01BC0E43319F4ECE3F0E0DC
:1002D80016C0E53319F4EBE4F0E011C0E63319F485
:1002E800EAE5F0E00CC0E73319F4E9E6F0E007C00E
:1002F800E83319F4E8E7F0E002C0E5E0F0E0219621
:100308000895609780E1A0E0B0E0EEE8F0E07DD1EC
:1003180020E030E040E050E0A5D078945E9AEFEF1E
:10032800E4B9E7B9E0E0E8B9E5B9A895552009F4DA
:1003380097C012DF1E2F113449F0123439F01334EC
:1003480029F0113310F0193308F077C0E881F981EA
:100358003196E883F9833197DE011296EA0FFB1F85
:100368001083A881B98112970CF466C0AA81A134C0
:1003780049F400D1AF01EBE7F0E0E41BF50B00D145
:10038800EE87FF87AA81A23441F4F4D0EE87FF8775
:10039800AE85BF850AD1F4D0AF01AA81A33479F420
:1003A800E9D0EC87FD87AC85BD85FFD0EA87FB8760
:1003B80001D1EE87FF87FED09F01FCD0AF01E88511
:1003C800F9853097C9F1F6DEE0E0EE83EF83EC853E
:1003D800FD85F6D02CF4A8EEB3E048D1F6D0F7CFDF
:1003E800FAD0E0E0EE83EF83EE85FF85E9D02CF4C8
:1003F800A8EEB3E03BD1E9D0F7CFF2D0E0E0EE834E
:10040800EF83AE81BF81A217B3072CF4A8EEB3E047
:100418002DD1DBD0F6CF2BDFF9DEE0E0EE83EF83E2
:10042800AE81BF81A417B5072CF4A8EEB3E01ED1A6
:10043800CCD0F6CFDCD0C7CF13C0BCDEA8EBB8E871
:1004480015D1C9D0A8EBB8E811D1CAD0A0E5B6E457
:100458000DD10DDFDBDEA8EBB8E808D1C8D0EDCFB1
:1004680064CFFFCFE0E8E0936100E0E0E093610053
:10047800E2B9E1B9E5B9E4B9E8B9E7B9E0E2EBB95D
:10048800E0E5EAB9E0E0E4BDE5BDE6BDE7BDE8BD0D
:10049800E0938000EDE0E0938100E0E0E0938500E8
:1004A800E0938400E0938700E0938600ECE4E09317
:1004B8008900E0E4E0938800E0E0E0938B00E093BB
:1004C8008A00E093B600E093B000E093B100E093B7
:1004D800B200E093B300E093B400E0936900EDBB91
:1004E800E0936800E0936E00E2E0E0936F00E0E0E4
:1004F800E0937000E093C000E8EDE093C100E6E00F
:10050800E093C200E0E0E093C500E1E8E093C400B6
:10051800E0E0E093C900E0E8E0BFE0E0E0937B00C2
:10052800E0937F00A895E8E1E0936000E8E0E093BD
:1005380060000895EA93FA93EFB7EA930895ACED53
:10054800B5E094D02898299A08952A982B9A41982A
:10055800429A2C9A08952898299A2A982B9A2C9886
:100568002D9A2E98409A419A0895F0E08F0120E044
:1005780030E00895E1E0F0E0E887F987AB8193CEB9
:10058800EA87FB87AA85BB85E3E0F0E05CD0EC87CF
:10059800FD87AA85BB85E3E0F0E055D09F01AA85D9
:1005A800BB85E3E0F0E04FD00895EBE7F0E0EA1B0D
:1005B800FB0B0895AA85BB85E3E0F0E044D00895DD
:1005C800AE81BF81AE17BF070895EE81FF813196D6
:1005D800EE83FF830895F4DDA8EBBBE047D0F7CDA9
:1005E8002ADE03DE08DEA8EBBBE040D006CE18DE2C
:1005F800A8EBBBE03BC03A932A931A930A93089559
:100608003B812A81198108810895AC0FBD1F05908F
:100618000D928A95E1F70895F195E195F0400895D6
:100628000024112490E1AA0FBB1F001C111C0E1AF4
:100638001F0A18F40E0E1F1E01C0A1609A9599F7A3
:10064800FD01D001089504D0EBDF0EF4E5DF089535
:10065800E894F7FF02C0E0DF6894B7FF06C0B195E1
:10066800A195B04000F8039400FA0895109639F067
:10067800A89588E893E10197F1F71197C9F70895CC
:00000001FF
